:100000000C9462000C948A000C948A000C948A0070
:100010000C948A000C948A000C948A000C948A0038
:100020000C948A000C948A000C948A000C94AD0203
:100030000C948A000C948A000C948A000C948A0018
:100040000C9463020C948A000C948A000C948A002D
:100050000C948A000C948A000C948A000C948A00F8
:100060000C948A000C948A000000000024002700F1
:100070002A0000000000250028002B0000000000DE
:1000800023002600290004040404040404040202DA
:100090000202020203030303030301020408102007
:1000A0004080010204081020010204081020000012
:1000B0000008000201000003040700000000000027
:1000C0000000260511241FBECFEFD8E0DEBFCDBF54
:1000D00011E0A0E0B1E0E0ECFBE002C005900D9281
:1000E000A231B107D9F721E0A2E1B1E001C01D9230
:1000F000AE34B207E1F710E0C2E6D0E004C02197C9
:10010000FE010E94D805C136D107C9F70E946903D4
:100110000C94DE050C9400008F929F92AF92BF92D8
:10012000FF920F931F93CF93DF93F0904B012BE03F
:100130002F1508F44CC020914D0108E512E0021B78
:10014000110927FD1395000F111F000F111F20919A
:100150004C01C8E8D0E0C21BD10927FDD395CC0FD4
:10016000DD1FCC0FDD1F4E010D2E000CAA08BB08B1
:100170009801012E000C440B550B281939094A0926
:100180005B09DC010E946B0524EB30E040E050E0AD
:100190000E944105820E931EA41EB51E8C169D065C
:1001A0002CF0E801801691060CF4E4012297CC0FA4
:1001B000DD1F2FB7F8948F2D90E0FC01EE0FFF1F8D
:1001C000E80FF91FE95DFE4FD283C1832FBFDF9196
:1001D000CF911F910F91FF90BF90AF909F908F9004
:1001E0000895833081F028F4813099F08230A9F0AD
:1001F00008958730A9F08830C9F08430B1F4809137
:1002000080008F7D03C0809180008F778093800075
:10021000089584B58F7784BD089584B58F7DFBCF15
:100220008091B0008F778093B00008958091B000E6
:100230008F7DF9CFCF93DF93282F30E0F901E2557E
:10024000FF4F8491F901E656FF4FD491F901EA5727
:10025000FF4FC491CC23A1F081110E94F100EC2F3B
:10026000F0E0EE0FFF1FE458FF4FA591B491EC9121
:10027000ED2381E090E009F480E0DF91CF910895D3
:1002800080E090E0FACF1F93CF93DF93282F30E0E8
:10029000F901E255FF4F8491F901E656FF4FD491E1
:1002A000F901EA57FF4FC491CC23A9F0162F811111
:1002B0000E94F100EC2FF0E0EE0FFF1FEE58FF4F11
:1002C000A591B4918FB7F894EC91111108C0D09515
:1002D000DE23DC938FBFDF91CF911F910895DE2B3A
:1002E000F8CFCF93DF9390E0FC01E656FF4F2491C7
:1002F0008A579F4FFC0184918823D1F090E0880FAA
:10030000991FFC01E859FF4FA591B491FC01EE58EB
:10031000FF4FC591D491623071F49FB7F8943C912E
:10032000822F809583238C93E8812E2B28839FBF77
:10033000DF91CF9108958FB7F894EC912E2B2C93E9
:100340008FBFF6CF3FB7F89480912301909124019D
:10035000A0912501B091260126B5A89B05C02F3F8D
:1003600019F00196A11DB11D3FBFBA2FA92F982FDB
:100370008827BC01CD01620F711D811D911D42E0D6
:10038000660F771F881F991F4A95D1F708958F929E
:100390009F92AF92BF92CF92DF92EF92FF920E9414
:1003A000A2014B015C0182E3C82ED12CE12CF12C7F
:1003B0000E94A201681979098A099B09683E734065
:1003C00081059105A8F321E0C21AD108E108F108DE
:1003D00088EE880E83E0981EA11CB11CC114D104C4
:1003E000E104F10429F7FF90EF90DF90CF90BF90E8
:1003F000AF909F908F900895AF92BF92CF92DF926F
:10040000EF92FF920F931F93CF93DF936AE070E018
:100410000E94B0056B018C0160E08FE00E944301F7
:100420008AE0E82E81E0F82E5701D0E0C0E0F60126
:10043000E050FF4FC080D12CB6010C2E02C0759544
:1004400067950A94E2F76170F50181915F010E945E
:1004500043012196C830D10579F78BE99FE00197D8
:10046000F1F761E08FE00E94430160E08EE00E94BE
:100470004301D0E0C0E0F801E050FF4F008110E000
:10048000B8010C2E02C0759567950A94E2F7617069
:10049000F70181917F010E9443012196C830D10567
:1004A00079F78BE99FE00197F1F761E08EE0DF914A
:1004B000CF911F910F91FF90EF90DF90CF90BF9061
:1004C000AF900C9443011F920F920FB60F9211241C
:1004D0002F933F938F939F93AF93BF9380911F016F
:1004E00090912001A0912101B091220130911E0133
:1004F00023E0230F2D3758F50196A11DB11D209340
:100500001E0180931F0190932001A0932101B093BD
:1005100022018091230190912401A0912501B091A5
:1005200026010196A11DB11D809323019093240102
:10053000A0932501B0932601BF91AF919F918F9118
:100540003F912F910F900FBE0F901F90189526E8A6
:10055000230F0296A11DB11DD2CF1F920F920FB68D
:100560000F9211242F933F934F935F936F937F9339
:100570008F939F93AF93BF93CF93DF93EF93FF93AB
:1005800080911301C0911201D0E087FF24C0109226
:10059000850010928400809113018F5F8093130176
:1005A00080911301082E000C990B8C179D0724F4E1
:1005B000809113018C30C4F180918400909185006A
:1005C000049680349C4908F47AC08091840090910C
:1005D0008500049676C080911301082E000C990BBB
:1005E0008C179D07C4F6E09113018E2FEE0F990B27
:1005F000FC01EE0FFF1FE80FF91FE95DFE4F808140
:1006000086FFC9CFE09113018E2FEE0F990BFC01ED
:10061000EE0FFF1FE80FF91FE95DFE4F808160E0DC
:100620008F730E944301B7CF2091840030918500E1
:10063000E09113018E2FEE0F990BFC01EE0FFF1FBF
:10064000E80FF91FE95DFE4F81819281820F931FB0
:100650009093890080938800E09113018E2FEE0F14
:10066000990BFC01EE0FFF1FE80FF91FE95DFE4F2C
:10067000808186FF11C0E09113018E2FEE0F990B40
:10068000FC01EE0FFF1FE80FF91FE95DFE4F8081AF
:1006900061E08F730E944301FF91EF91DF91CF9151
:1006A000BF91AF919F918F917F916F915F914F918A
:1006B0003F912F910F900FBE0F901F90189580E4DF
:1006C0009CE990938900809388008FEF80931301B9
:1006D000E3CF789484B5826084BD84B5816084BDA5
:1006E00085B5826085BD85B5816085BD80916E00D0
:1006F000816080936E001092810080918100826001
:10070000809381008091810081608093810080913D
:1007100080008160809380008091B100846080932C
:10072000B1008091B00081608093B00080917A0028
:10073000846080937A0080917A00826080937A004E
:1007400080917A00816080937A0080917A0080683D
:1007500080937A001092C10080914B018C3008F098
:1007600051C061E084E00E94710180914B01282F0B
:1007700030E0F901EE0FFF1FE20FF31FE95DFE4FBE
:100780009081907C9460908310924C0110924D0166
:100790002CE0622F0E94A405829FB001112430E05A
:1007A00020E0AB01420F531FFA01EE0FFF1FE40FD1
:1007B000F51FE95DFE4F908196FD16C02F5F3F4FFC
:1007C0002C30310571F781110FC01092800082E04A
:1007D000809381001092850010928400B19A8091DC
:1007E0006F00826080936F00E0914B018E2F90E04C
:1007F000FC01EE0FFF1FE80FF91FE95DFE4F80813E
:100800008064808362E083E00E94710162E085E0A1
:100810000E94710161E083E00E94430161E085E094
:100820000E94430161E08DE00E94710161E08CE073
:100830000E94710161E08BE00E94710161E08AE039
:100840000E94710161E089E00E94710161E088E02D
:100850000E94710161E087E00E94710161E086E021
:100860000E94710161E086E00E947101E4EBF0E01A
:10087000E491E33009F4BCC050F4E130E1F0E2303F
:1008800009F4B0C061E086E00E94430119C0E7307E
:1008900009F4BAC0E83009F4C0C0E43099F7809197
:1008A00080008062809380008CEC90E090938B00BD
:1008B00080938A0005C084B5806884BD8CEC87BDB8
:1008C00081EB90E00E948C00C2E1D1E09AE0E92E39
:1008D00091E0F92E61E0F70181917F010E947101A1
:1008E000CE15DF05B9F761E08EE00E94710161E08D
:1008F0008EE00E94430161E08FE00E94710161E09F
:100900008FE00E94430162E085E00E94710162E095
:1009100083E00E94710180911601909117010E945D
:10092000FC0180E0C82E80E0D82E85E00E941A01EC
:100930008C0190931D0180931C0183E00E941A0199
:10094000EC0190931B0180931A0180911801909102
:1009500019010817190769F00115110541F481EB18
:1009600090E0209711F08FE590E00E948C000E94AB
:10097000C7018091140190911501C817D907A1F002
:10098000209709F058C080911601909117010196A7
:1009900097FD4CC0909317018093160181EB90E076
:1009A0000E948C000E94C701109319010093180146
:1009B000D0931501C0931401CAE0D1E060E08991A1
:1009C0000E944301CE15DF05C9F780911601909171
:1009D00017010E94FC01C114D10409F4A6CF0E94A2
:1009E0000000A3CF84B5806284BD8CEC88BD68CF45
:1009F000809180008068809380008CEC90E09093E0
:100A00008900809388005CCF8091B00080688093DB
:100A1000B0008CEC8093B30053CF8091B000806223
:100A20008093B0008CEC8093B4004ACF10921701F1
:100A300010921601B3CFC130D10509F0B3CF011523
:100A4000110509F0AFCF8FE590E0AACF8091120198
:100A50008C3098F491E0980F9093120180934B01A1
:100A600090E0FC01EE0FFF1FE80FF91FE95DFE4F5C
:100A700088EB9BE09283818308958FEF80934B01F5
:100A80000895052E97FB1EF400940E94580557FD0B
:100A900007D00E94730507FC03D04EF40C94580550
:100AA00050954095309521953F4F4F4F5F4F08959A
:100AB00090958095709561957F4F8F4F9F4F0895CA
:100AC0000E949505A59F900DB49F900DA49F800D49
:100AD000911D11240895B7FF0C9460050E946005D4
:100AE000821B930B0895A1E21A2EAA1BBB1BFD01CA
:100AF0000DC0AA1FBB1FEE1FFF1FA217B307E407FD
:100B0000F50720F0A21BB30BE40BF50B661F771F54
:100B1000881F991F1A9469F7609570958095909534
:100B20009B01AC01BD01CF010895A29FB001B39F0D
:100B3000C001A39F700D811D1124911DB29F700DE6
:100B4000811D1124911D0895991B79E004C0991FFE
:100B5000961708F0961B881F7A95C9F78095089517
:100B600097FB072E16F4009407D077FD09D00E945A
:100B7000C40507FC05D03EF4909581959F4F0895DC
:100B8000709561957F4F0895AA1BBB1B51E107C06B
:100B9000AA1FBB1FA617B70710F0A61BB70B881F0D
:100BA000991F5A95A9F780959095BC01CD0108959C
:100BB000EE0FFF1F0590F491E02D0994F894FFCFFC
:100BC0003F065B4F666D7D077F6F0D0C0B0A0908B2
:020BD000070616
:00000001FF
